:0A0000001DC0FECFFDCFFCCFFBCFEB
:10000A00FACFF9CFF8CFF7CFF6CFF5CFF4CFF3CFBA
:10001A00F2CFF1CFF0CFEFCFEECFEDCFECCFEBCFEA
:10002A0044617461203D200080C00200E00032007B
:10003A000000F894EE27ECBBF1E0FBBFEBBFE5BF95
:10004A00F8E1F1BDE1BD8DE0A2E0BB27ED938A9511
:10005A00E9F780E092E0A0E6ED930197E9F7E4E39F
:10006A00F0E085919591009761F0A591B591059081
:10007A001590BF01F00105900D920197E1F7FB0180
:10008A00F0CFEFE5EDBFE2E0EEBFC0EED0E026C074
:10009A0089D119D1EA81EA934AD1E1E4EA9347D1B5
:1000AA0021D18DE08A95F1F70ED1EA81E160EA93D8
:1000BA003ED1E1E0EA9320D10E2F1127F02FE0E0A4
:1000CA00FF93EF93E8D018D1AF91BF91F0E0EA0F18
:1000DA00FB1F8F0107D1F80168D1A0C0EFD0E0E182
:1000EA00EA93ADD0E0EEEA93D3DF8F01D4D0D3D038
:1000FA0055D0EAE2F0E0FA93EA9381D0D801E8EE2B
:10010A00F3E0CCD0E4E6F0E0C9D0EAE0F0E0C6D013
:10011A00EAE0F0E044D1F096EA935AD0E4EFF1E055
:10012A00FA93EA931DD1DECFFFCFFFE0FA95F1F7FC
:10013A000895A4B3AF70A4BBA99AA898F6DFAA9AA7
:10014A00F4DFA3B3AA98F1DFAA9AEFDFAA98A7FD72
:10015A00F5CF0895A07FAB2BA5BBAA9AE6DFAA9894
:10016A00E4DF0895A998A4B3A76FA4BBB5B3BF7081
:10017A00A881F0DFA881A295EDDFA99A8AC0AA9A80
:10018A00D4DFE3B3AA98D1DFE07F0895CEDFF7DFAB
:10019A00AE2FF5DFA998E295EA2B0895CADFE88128
:1001AA00F0E0E052FF4FE081A981EA0F81D0598047
:1001BA00488022960895BDDFE2E07AD0BADFECE00B
:1001CA0077D0B7DFE1E074D0E0E04E2E5E2E0895DE
:1001DA00EF93FF93A8816894AA3019F0E894571412
:1001EA0028F0439458D04A92D9DF36F05394A1DFCD
:1001FA00A89AA881AA93B6DFFF91EF914AC01A93F1
:10020A00E981FA813196E983FA833197E4911E2FC5
:10021A00E03019F01A93DCDFF3CF188123960895A2
:10022A00AA27BB271197F1F70895A998A4B3A76F36
:10023A00A4BBB5B3BF70A8818DDFA99A2AC0AA98BA
:10024A00A8987880E881E058E093E200E881E054D9
:10025A00E093E3002FD02ED02DD0E2DFE0E2EA9344
:10026A00E4DFDEDFE8E224D0DBDFE4E021D0D8DF20
:10027A00E5E81ED0D5DFA4B3AF70A4BBA99A86DF88
:10028A00E53011F0E0E005C054DFE6E011D093DF7D
:10029A00E1E021960895E0E0EA9308956DD0DF0148
:1002AA00EAE0F0E07CD0F096EA9392DFD801089574
:1002BA00EA9358CFB5DFE0E3EA93B7CF93989298E1
:1002CA008B9A8A9815C08A988B98EE270000829B91
:1002DA000895839B089504D08A9A02D08B9AE1E00C
:1002EA0067E007C08A9A8B9A03D08B98F9DF8A98BD
:1002FA006DE06A95F1F7089578E08B98F1DF839BBA
:10030A00FECFEEDF8894829908948B9AF1DFEE1F74
:10031A007A9599F77991772311F48A9801C08A9A84
:10032A00DFDF8B98E5DF8B9ADBDF8A98D9CFE991FB
:10033A0078E0EE0F10F48A9801C08A9AD9DF8B9878
:10034A00CFDF839BFECFCCDF8B9A7A9591F78A9881
:10035A00C7DF8B98CDDFE1E08299EE278B9A08956B
:10036A00E991F991309639F088EE93E00197F1F727
:10037A00A8953197C9F708950024112490E1AA0F8E
:10038A00BB1F001C111C0E1A1F0A18F40E0E1F1E8A
:10039A0001C0A1609A9599F7FD01D0010895ECDF9B
:1003AA00FD0108951A930A93089519810881089501
:00000001FF
